{
  "_format": "hh3-artifact-1",
  "contractName": "TaxableEarning",
  "sourceName": "contracts/TaxableEarning.sol",
  "abi": [
    {
      "inputs": [],
      "stateMutability": "nonpayable",
      "type": "constructor"
    },
    {
      "inputs": [],
      "name": "ForwardingError",
      "type": "error"
    },
    {
      "anonymous": false,
      "inputs": [
        {
          "indexed": false,
          "internalType": "address",
          "name": "from",
          "type": "address"
        },
        {
          "indexed": false,
          "internalType": "address",
          "name": "to",
          "type": "address"
        },
        {
          "indexed": false,
          "internalType": "uint256",
          "name": "amount",
          "type": "uint256"
        }
      ],
      "name": "TaxableEvent",
      "type": "event"
    },
    {
      "inputs": [],
      "name": "recipient",
      "outputs": [
        {
          "internalType": "address payable",
          "name": "",
          "type": "address"
        }
      ],
      "stateMutability": "view",
      "type": "function"
    },
    {
      "stateMutability": "payable",
      "type": "receive"
    }
  ],
  "bytecode": "0x60a0604052348015600e575f5ffd5b50336080526080516101a76100375f395f818160280152818160be015261013301526101a75ff3fe608060405260043610610020575f3560e01c806366d003ac14610122575f5ffd5b3661011e575f7f00000000000000000000000000000000000000000000000000000000000000006001600160a01b0316346040515f6040518083038185875af1925050503d805f811461008e576040519150601f19603f3d011682016040523d82523d5f602084013e610093565b606091505b50509050806100b55760405163352a481760e11b815260040160405180910390fd5b604080513381527f00000000000000000000000000000000000000000000000000000000000000006001600160a01b03166020820152348183015290517f693342e8e31e27c1209387cc0f3c1e9df31ea9c6fcbb2d672f8e07929613446e9181900360600190a1005b5f5ffd5b34801561012d575f5ffd5b506101557f000000000000000000000000000000000000000000000000000000000000000081565b6040516001600160a01b03909116815260200160405180910390f3fea26469706673582212204aec7496debbe1cdbdd8e0f8baea7323d13939aa0a761f02aa939b2c2850b47f64736f6c634300081c0033",
  "linkReferences": {},
  "deployedLinkReferences": {},
  "immutableReferences": {
    "3": [
      {
        "length": 32,
        "start": 40
      },
      {
        "length": 32,
        "start": 190
      },
      {
        "length": 32,
        "start": 307
      }
    ]
  },
  "inputSourceName": "project/contracts/TaxableEarning.sol",
  "buildInfoId": "solc-0_8_28-b1db2891b5c2368fae8b6130e5753bda7849ca36"
}