{
  "_format": "hh3-artifact-1",
  "contractName": "Voting",
  "sourceName": "contracts/Voting.sol",
  "abi": [
    {
      "inputs": [
        {
          "internalType": "uint256",
          "name": "proposal_number",
          "type": "uint256"
        },
        {
          "internalType": "bool",
          "name": "for_or_against",
          "type": "bool"
        }
      ],
      "name": "CastVote",
      "outputs": [],
      "stateMutability": "nonpayable",
      "type": "function"
    },
    {
      "inputs": [
        {
          "internalType": "uint256",
          "name": "new_proposal_number",
          "type": "uint256"
        },
        {
          "internalType": "string",
          "name": "name",
          "type": "string"
        }
      ],
      "name": "CreateProposal",
      "outputs": [],
      "stateMutability": "nonpayable",
      "type": "function"
    },
    {
      "inputs": [
        {
          "internalType": "uint256",
          "name": "proposal_number",
          "type": "uint256"
        }
      ],
      "name": "GetVotesAgainst",
      "outputs": [
        {
          "internalType": "uint256",
          "name": "",
          "type": "uint256"
        }
      ],
      "stateMutability": "view",
      "type": "function"
    },
    {
      "inputs": [
        {
          "internalType": "uint256",
          "name": "proposal_number",
          "type": "uint256"
        }
      ],
      "name": "GetVotesFor",
      "outputs": [
        {
          "internalType": "uint256",
          "name": "",
          "type": "uint256"
        }
      ],
      "stateMutability": "view",
      "type": "function"
    },
    {
      "inputs": [
        {
          "internalType": "uint256",
          "name": "proposal_number",
          "type": "uint256"
        }
      ],
      "name": "IsProposalWinning",
      "outputs": [
        {
          "internalType": "bool",
          "name": "",
          "type": "bool"
        }
      ],
      "stateMutability": "view",
      "type": "function"
    },
    {
      "inputs": [
        {
          "internalType": "uint256",
          "name": "",
          "type": "uint256"
        }
      ],
      "name": "proposals",
      "outputs": [
        {
          "internalType": "string",
          "name": "name",
          "type": "string"
        },
        {
          "internalType": "uint256",
          "name": "votes_for",
          "type": "uint256"
        },
        {
          "internalType": "uint256",
          "name": "votes_against",
          "type": "uint256"
        },
        {
          "internalType": "bool",
          "name": "registered",
          "type": "bool"
        }
      ],
      "stateMutability": "view",
      "type": "function"
    }
  ],
  "bytecode": "0x6080604052348015600e575f5ffd5b5061086b8061001c5f395ff3fe608060405234801561000f575f5ffd5b5060043610610060575f3560e01c8063013cf08b14610064578063379776ce1461009057806395fb64cd146100b1578063aaea7015146100c4578063c6058068146100d9578063d5fc96a5146100fc575b5f5ffd5b610077610072366004610535565b61010f565b604051610087949392919061054c565b60405180910390f35b6100a361009e366004610535565b6101c1565b604051908152602001610087565b6100a36100bf366004610535565b61020f565b6100d76100d23660046105ac565b610254565b005b6100ec6100e7366004610535565b6102f7565b6040519015158152602001610087565b6100d761010a366004610669565b61040b565b5f602081905290815260409020805481906101299061069b565b80601f01602080910402602001604051908101604052809291908181526020018280546101559061069b565b80156101a05780601f10610177576101008083540402835291602001916101a0565b820191905f5260205f20905b81548152906001019060200180831161018357829003601f168201915b50505050600183015460028401546003909401549293909290915060ff1684565b5f8181526020819052604081206003015460ff166101fa5760405162461bcd60e51b81526004016101f1906106d3565b60405180910390fd5b505f9081526020819052604090206001015490565b5f8181526020819052604081206003015460ff1661023f5760405162461bcd60e51b81526004016101f1906106d3565b505f9081526020819052604090206002015490565b5f8281526020819052604090206003015460ff16156102c15760405162461bcd60e51b8152602060048201526024808201527f546861742070726f706f73616c2068617320616c7265616479206265656e206d60448201526330b2329760e11b60648201526084016101f1565b5f8281526020819052604090206102d88282610756565b50505f908152602081905260409020600301805460ff19166001179055565b5f8181526020819052604081206003015460ff166103275760405162461bcd60e51b81526004016101f1906106d3565b5f8281526020819052604080822081516080810190925280548290829061034d9061069b565b80601f01602080910402602001604051908101604052809291908181526020018280546103799061069b565b80156103c45780601f1061039b576101008083540402835291602001916103c4565b820191905f5260205f20905b8154815290600101906020018083116103a757829003601f168201915b50505091835250506001820154602080830191909152600283015460408084019190915260039093015460ff16151560609092019190915290820151910151119392505050565b5f8281526020819052604090206003015460ff1661043b5760405162461bcd60e51b81526004016101f1906106d3565b5f82815260016020908152604080832033845290915290205460ff16156104ca5760405162461bcd60e51b815260206004820152603860248201527f5468652073656e646572206d757374206e6f74206861766520616c726561647960448201527f20766f746564206f6e20746869732070726f706f73616c2e000000000000000060648201526084016101f1565b5f828152600160208181526040808420338552909152909120805460ff191690911790558015610519575f82815260208190526040812060010180549161051083610811565b91905055505050565b5f82815260208190526040812060020180549161051083610811565b5f60208284031215610545575f5ffd5b5035919050565b608081525f8551806080840152806020880160a085015e5f60a0828501015260a0601f19601f830116840101915050846020830152836040830152821515606083015295945050505050565b634e487b7160e01b5f52604160045260245ffd5b5f5f604083850312156105bd575f5ffd5b82359150602083013567ffffffffffffffff8111156105da575f5ffd5b8301601f810185136105ea575f5ffd5b803567ffffffffffffffff81111561060457610604610598565b604051601f8201601f19908116603f0116810167ffffffffffffffff8111828210171561063357610633610598565b60405281815282820160200187101561064a575f5ffd5b816020840160208301375f602083830101528093505050509250929050565b5f5f6040838503121561067a575f5ffd5b8235915060208301358015158114610690575f5ffd5b809150509250929050565b600181811c908216806106af57607f821691505b6020821081036106cd57634e487b7160e01b5f52602260045260245ffd5b50919050565b60208082526018908201527f5468652070726f706f73616c206d7573742065786973742e0000000000000000604082015260600190565b601f82111561075157805f5260205f20601f840160051c8101602085101561072f5750805b601f840160051c820191505b8181101561074e575f815560010161073b565b50505b505050565b815167ffffffffffffffff81111561077057610770610598565b6107848161077e845461069b565b8461070a565b6020601f8211600181146107b6575f831561079f5750848201515b5f19600385901b1c1916600184901b17845561074e565b5f84815260208120601f198516915b828110156107e557878501518255602094850194600190920191016107c5565b508482101561080257868401515f19600387901b60f8161c191681555b50505050600190811b01905550565b5f6001820161082e57634e487b7160e01b5f52601160045260245ffd5b506001019056fea2646970667358221220831de5d1f2da89be1abcf79b9a736e0075a950f65386423a396d27ff3f4eae3564736f6c634300081c0033",
  "linkReferences": {},
  "deployedLinkReferences": {},
  "immutableReferences": {},
  "inputSourceName": "project/contracts/Voting.sol",
  "buildInfoId": "solc-0_8_28-1204ffe43822952104a30615dc51161d31d211c6"
}