{
  "_format": "hh3-artifact-1",
  "contractName": "HelloWorld",
  "sourceName": "contracts/HelloWorld.sol",
  "abi": [
    {
      "anonymous": false,
      "inputs": [
        {
          "indexed": false,
          "internalType": "string",
          "name": "message",
          "type": "string"
        }
      ],
      "name": "MessageSet",
      "type": "event"
    },
    {
      "inputs": [
        {
          "internalType": "string",
          "name": "new_message",
          "type": "string"
        }
      ],
      "name": "SetMessage",
      "outputs": [],
      "stateMutability": "nonpayable",
      "type": "function"
    },
    {
      "inputs": [],
      "name": "message",
      "outputs": [
        {
          "internalType": "string",
          "name": "",
          "type": "string"
        }
      ],
      "stateMutability": "view",
      "type": "function"
    }
  ],
  "bytecode": "0x60c060405260076080908152664e6f7468696e6760c81b60a0525f9061002590826100cf565b50348015610031575f5ffd5b50610189565b634e487b7160e01b5f52604160045260245ffd5b600181811c9082168061005f57607f821691505b60208210810361007d57634e487b7160e01b5f52602260045260245ffd5b50919050565b601f8211156100ca57805f5260205f20601f840160051c810160208510156100a85750805b601f840160051c820191505b818110156100c7575f81556001016100b4565b50505b505050565b81516001600160401b038111156100e8576100e8610037565b6100fc816100f6845461004b565b84610083565b6020601f82116001811461012e575f83156101175750848201515b5f19600385901b1c1916600184901b1784556100c7565b5f84815260208120601f198516915b8281101561015d578785015182556020948501946001909201910161013d565b508482101561017a57868401515f19600387901b60f8161c191681555b50505050600190811b01905550565b610434806101965f395ff3fe608060405234801561000f575f5ffd5b5060043610610034575f3560e01c806388fabb3a14610038578063e21f37ce1461004d575b5f5ffd5b61004b610046366004610150565b61006b565b005b6100556100b1565b6040516100629190610203565b60405180910390f35b5f61007682826102bc565b507f3d7f415c35b881f2d0a109b3d9a1377e1e14afec5cc1fd06b563ed160c5e26305f6040516100a69190610377565b60405180910390a150565b5f80546100bd90610238565b80601f01602080910402602001604051908101604052809291908181526020018280546100e990610238565b80156101345780601f1061010b57610100808354040283529160200191610134565b820191905f5260205f20905b81548152906001019060200180831161011757829003601f168201915b505050505081565b634e487b7160e01b5f52604160045260245ffd5b5f60208284031215610160575f5ffd5b813567ffffffffffffffff811115610176575f5ffd5b8201601f81018413610186575f5ffd5b803567ffffffffffffffff8111156101a0576101a061013c565b604051601f8201601f19908116603f0116810167ffffffffffffffff811182821017156101cf576101cf61013c565b6040528181528282016020018610156101e6575f5ffd5b816020840160208301375f91810160200191909152949350505050565b602081525f82518060208401528060208501604085015e5f604082850101526040601f19601f83011684010191505092915050565b600181811c9082168061024c57607f821691505b60208210810361026a57634e487b7160e01b5f52602260045260245ffd5b50919050565b601f8211156102b757805f5260205f20601f840160051c810160208510156102955750805b601f840160051c820191505b818110156102b4575f81556001016102a1565b50505b505050565b815167ffffffffffffffff8111156102d6576102d661013c565b6102ea816102e48454610238565b84610270565b6020601f82116001811461031c575f83156103055750848201515b5f19600385901b1c1916600184901b1784556102b4565b5f84815260208120601f198516915b8281101561034b578785015182556020948501946001909201910161032b565b508482101561036857868401515f19600387901b60f8161c191681555b50505050600190811b01905550565b602081525f5f835461038881610238565b806020860152600182165f81146103a657600181146103c2576103f3565b60ff1983166040870152604082151560051b87010193506103f3565b865f5260205f205f5b838110156103ea578154888201604001526001909101906020016103cb565b87016040019450505b50919594505050505056fea264697066735822122032908e3430de7ac964222018879b644976419c534745d0ae2d41a1ac7043af6964736f6c634300081c0033",
  "linkReferences": {},
  "deployedLinkReferences": {},
  "immutableReferences": {},
  "inputSourceName": "project/contracts/HelloWorld.sol",
  "buildInfoId": "solc-0_8_28-2c6b03837140e54e1229645dbe073efe81aa2c88"
}