{
  "_format": "hh3-artifact-1",
  "contractName": "TotemForge",
  "sourceName": "contracts/TotemForge.sol",
  "abi": [
    {
      "inputs": [],
      "stateMutability": "nonpayable",
      "type": "constructor"
    },
    {
      "inputs": [
        {
          "internalType": "address",
          "name": "sender",
          "type": "address"
        },
        {
          "internalType": "uint256",
          "name": "tokenId",
          "type": "uint256"
        },
        {
          "internalType": "address",
          "name": "owner",
          "type": "address"
        }
      ],
      "name": "ERC721IncorrectOwner",
      "type": "error"
    },
    {
      "inputs": [
        {
          "internalType": "address",
          "name": "operator",
          "type": "address"
        },
        {
          "internalType": "uint256",
          "name": "tokenId",
          "type": "uint256"
        }
      ],
      "name": "ERC721InsufficientApproval",
      "type": "error"
    },
    {
      "inputs": [
        {
          "internalType": "address",
          "name": "approver",
          "type": "address"
        }
      ],
      "name": "ERC721InvalidApprover",
      "type": "error"
    },
    {
      "inputs": [
        {
          "internalType": "address",
          "name": "operator",
          "type": "address"
        }
      ],
      "name": "ERC721InvalidOperator",
      "type": "error"
    },
    {
      "inputs": [
        {
          "internalType": "address",
          "name": "owner",
          "type": "address"
        }
      ],
      "name": "ERC721InvalidOwner",
      "type": "error"
    },
    {
      "inputs": [
        {
          "internalType": "address",
          "name": "receiver",
          "type": "address"
        }
      ],
      "name": "ERC721InvalidReceiver",
      "type": "error"
    },
    {
      "inputs": [
        {
          "internalType": "address",
          "name": "sender",
          "type": "address"
        }
      ],
      "name": "ERC721InvalidSender",
      "type": "error"
    },
    {
      "inputs": [
        {
          "internalType": "uint256",
          "name": "tokenId",
          "type": "uint256"
        }
      ],
      "name": "ERC721NonexistentToken",
      "type": "error"
    },
    {
      "anonymous": false,
      "inputs": [
        {
          "indexed": true,
          "internalType": "address",
          "name": "owner",
          "type": "address"
        },
        {
          "indexed": true,
          "internalType": "address",
          "name": "approved",
          "type": "address"
        },
        {
          "indexed": true,
          "internalType": "uint256",
          "name": "tokenId",
          "type": "uint256"
        }
      ],
      "name": "Approval",
      "type": "event"
    },
    {
      "anonymous": false,
      "inputs": [
        {
          "indexed": true,
          "internalType": "address",
          "name": "owner",
          "type": "address"
        },
        {
          "indexed": true,
          "internalType": "address",
          "name": "operator",
          "type": "address"
        },
        {
          "indexed": false,
          "internalType": "bool",
          "name": "approved",
          "type": "bool"
        }
      ],
      "name": "ApprovalForAll",
      "type": "event"
    },
    {
      "anonymous": false,
      "inputs": [
        {
          "indexed": false,
          "internalType": "uint256",
          "name": "_fromTokenId",
          "type": "uint256"
        },
        {
          "indexed": false,
          "internalType": "uint256",
          "name": "_toTokenId",
          "type": "uint256"
        }
      ],
      "name": "BatchMetadataUpdate",
      "type": "event"
    },
    {
      "anonymous": false,
      "inputs": [
        {
          "indexed": false,
          "internalType": "uint256",
          "name": "_tokenId",
          "type": "uint256"
        }
      ],
      "name": "MetadataUpdate",
      "type": "event"
    },
    {
      "anonymous": false,
      "inputs": [
        {
          "indexed": true,
          "internalType": "address",
          "name": "from",
          "type": "address"
        },
        {
          "indexed": true,
          "internalType": "address",
          "name": "to",
          "type": "address"
        },
        {
          "indexed": true,
          "internalType": "uint256",
          "name": "tokenId",
          "type": "uint256"
        }
      ],
      "name": "Transfer",
      "type": "event"
    },
    {
      "inputs": [
        {
          "internalType": "address",
          "name": "to",
          "type": "address"
        },
        {
          "internalType": "uint256",
          "name": "tokenId",
          "type": "uint256"
        }
      ],
      "name": "approve",
      "outputs": [],
      "stateMutability": "nonpayable",
      "type": "function"
    },
    {
      "inputs": [
        {
          "internalType": "address",
          "name": "owner",
          "type": "address"
        }
      ],
      "name": "balanceOf",
      "outputs": [
        {
          "internalType": "uint256",
          "name": "",
          "type": "uint256"
        }
      ],
      "stateMutability": "view",
      "type": "function"
    },
    {
      "inputs": [
        {
          "internalType": "uint256",
          "name": "tokenId",
          "type": "uint256"
        }
      ],
      "name": "getApproved",
      "outputs": [
        {
          "internalType": "address",
          "name": "",
          "type": "address"
        }
      ],
      "stateMutability": "view",
      "type": "function"
    },
    {
      "inputs": [
        {
          "internalType": "address",
          "name": "owner",
          "type": "address"
        },
        {
          "internalType": "address",
          "name": "operator",
          "type": "address"
        }
      ],
      "name": "isApprovedForAll",
      "outputs": [
        {
          "internalType": "bool",
          "name": "",
          "type": "bool"
        }
      ],
      "stateMutability": "view",
      "type": "function"
    },
    {
      "inputs": [
        {
          "internalType": "address",
          "name": "new_owner",
          "type": "address"
        },
        {
          "internalType": "string",
          "name": "uri",
          "type": "string"
        }
      ],
      "name": "mint",
      "outputs": [
        {
          "internalType": "uint256",
          "name": "",
          "type": "uint256"
        }
      ],
      "stateMutability": "nonpayable",
      "type": "function"
    },
    {
      "inputs": [],
      "name": "name",
      "outputs": [
        {
          "internalType": "string",
          "name": "",
          "type": "string"
        }
      ],
      "stateMutability": "view",
      "type": "function"
    },
    {
      "inputs": [],
      "name": "owner",
      "outputs": [
        {
          "internalType": "address",
          "name": "",
          "type": "address"
        }
      ],
      "stateMutability": "view",
      "type": "function"
    },
    {
      "inputs": [
        {
          "internalType": "uint256",
          "name": "tokenId",
          "type": "uint256"
        }
      ],
      "name": "ownerOf",
      "outputs": [
        {
          "internalType": "address",
          "name": "",
          "type": "address"
        }
      ],
      "stateMutability": "view",
      "type": "function"
    },
    {
      "inputs": [
        {
          "internalType": "address",
          "name": "from",
          "type": "address"
        },
        {
          "internalType": "address",
          "name": "to",
          "type": "address"
        },
        {
          "internalType": "uint256",
          "name": "tokenId",
          "type": "uint256"
        }
      ],
      "name": "safeTransferFrom",
      "outputs": [],
      "stateMutability": "nonpayable",
      "type": "function"
    },
    {
      "inputs": [
        {
          "internalType": "address",
          "name": "from",
          "type": "address"
        },
        {
          "internalType": "address",
          "name": "to",
          "type": "address"
        },
        {
          "internalType": "uint256",
          "name": "tokenId",
          "type": "uint256"
        },
        {
          "internalType": "bytes",
          "name": "data",
          "type": "bytes"
        }
      ],
      "name": "safeTransferFrom",
      "outputs": [],
      "stateMutability": "nonpayable",
      "type": "function"
    },
    {
      "inputs": [
        {
          "internalType": "address",
          "name": "operator",
          "type": "address"
        },
        {
          "internalType": "bool",
          "name": "approved",
          "type": "bool"
        }
      ],
      "name": "setApprovalForAll",
      "outputs": [],
      "stateMutability": "nonpayable",
      "type": "function"
    },
    {
      "inputs": [
        {
          "internalType": "bytes4",
          "name": "interfaceId",
          "type": "bytes4"
        }
      ],
      "name": "supportsInterface",
      "outputs": [
        {
          "internalType": "bool",
          "name": "",
          "type": "bool"
        }
      ],
      "stateMutability": "view",
      "type": "function"
    },
    {
      "inputs": [],
      "name": "symbol",
      "outputs": [
        {
          "internalType": "string",
          "name": "",
          "type": "string"
        }
      ],
      "stateMutability": "view",
      "type": "function"
    },
    {
      "inputs": [
        {
          "internalType": "uint256",
          "name": "tokenId",
          "type": "uint256"
        }
      ],
      "name": "tokenURI",
      "outputs": [
        {
          "internalType": "string",
          "name": "",
          "type": "string"
        }
      ],
      "stateMutability": "view",
      "type": "function"
    },
    {
      "inputs": [
        {
          "internalType": "address",
          "name": "from",
          "type": "address"
        },
        {
          "internalType": "address",
          "name": "to",
          "type": "address"
        },
        {
          "internalType": "uint256",
          "name": "tokenId",
          "type": "uint256"
        }
      ],
      "name": "transferFrom",
      "outputs": [],
      "stateMutability": "nonpayable",
      "type": "function"
    }
  ],
  "bytecode": "0x608060405234801561000f575f5ffd5b506040518060400160405280600a815260200169546f74656d466f72676560b01b8152506040518060400160405280600381526020016254544d60e81b815250815f908161005d919061011c565b50600161006a828261011c565b5050600780546001600160a01b03191633179055506101d6565b634e487b7160e01b5f52604160045260245ffd5b600181811c908216806100ac57607f821691505b6020821081036100ca57634e487b7160e01b5f52602260045260245ffd5b50919050565b601f82111561011757805f5260205f20601f840160051c810160208510156100f55750805b601f840160051c820191505b81811015610114575f8155600101610101565b50505b505050565b81516001600160401b0381111561013557610135610084565b610149816101438454610098565b846100d0565b6020601f82116001811461017b575f83156101645750848201515b5f19600385901b1c1916600184901b178455610114565b5f84815260208120601f198516915b828110156101aa578785015182556020948501946001909201910161018a565b50848210156101c757868401515f19600387901b60f8161c191681555b50505050600190811b01905550565b6112c0806101e35f395ff3fe608060405234801561000f575f5ffd5b50600436106100f0575f3560e01c806370a0823111610093578063b88d4fde11610063578063b88d4fde146101f9578063c87b56dd1461020c578063d0def5211461021f578063e985e9c514610232575f5ffd5b806370a08231146101aa5780638da5cb5b146101cb57806395d89b41146101de578063a22cb465146101e6575f5ffd5b8063095ea7b3116100ce578063095ea7b31461015c57806323b872dd1461017157806342842e0e146101845780636352211e14610197575f5ffd5b806301ffc9a7146100f457806306fdde031461011c578063081812fc14610131575b5f5ffd5b610107610102366004610ddb565b610245565b60405190151581526020015b60405180910390f35b61012461026f565b6040516101139190610e24565b61014461013f366004610e36565b6102fe565b6040516001600160a01b039091168152602001610113565b61016f61016a366004610e68565b610325565b005b61016f61017f366004610e90565b610334565b61016f610192366004610e90565b6103c2565b6101446101a5366004610e36565b6103e1565b6101bd6101b8366004610eca565b6103eb565b604051908152602001610113565b600754610144906001600160a01b031681565b610124610430565b61016f6101f4366004610ee3565b61043f565b61016f610207366004610fa7565b61044a565b61012461021a366004610e36565b610462565b6101bd61022d36600461101e565b61056d565b61010761024036600461107c565b6105fa565b5f6001600160e01b03198216632483248360e11b1480610269575061026982610627565b92915050565b60605f805461027d906110ad565b80601f01602080910402602001604051908101604052809291908181526020018280546102a9906110ad565b80156102f45780601f106102cb576101008083540402835291602001916102f4565b820191905f5260205f20905b8154815290600101906020018083116102d757829003601f168201915b5050505050905090565b5f61030882610676565b505f828152600460205260409020546001600160a01b0316610269565b6103308282336106ae565b5050565b6001600160a01b03821661036257604051633250574960e11b81525f60048201526024015b60405180910390fd5b5f61036e8383336106bb565b9050836001600160a01b0316816001600160a01b0316146103bc576040516364283d7b60e01b81526001600160a01b0380861660048301526024820184905282166044820152606401610359565b50505050565b6103dc83838360405180602001604052805f81525061044a565b505050565b5f61026982610676565b5f6001600160a01b038216610415576040516322718ad960e21b81525f6004820152602401610359565b506001600160a01b03165f9081526003602052604090205490565b60606001805461027d906110ad565b6103303383836107ad565b610455848484610334565b6103bc338585858561084b565b606061046d82610676565b505f8281526006602052604081208054610486906110ad565b80601f01602080910402602001604051908101604052809291908181526020018280546104b2906110ad565b80156104fd5780601f106104d4576101008083540402835291602001916104fd565b820191905f5260205f20905b8154815290600101906020018083116104e057829003601f168201915b505050505090505f61051960408051602081019091525f815290565b905080515f0361052a575092915050565b81511561055c5780826040516020016105449291906110fc565b60405160208183030381529060405292505050919050565b61056584610973565b949350505050565b6007545f906001600160a01b031633146105c95760405162461bcd60e51b815260206004820152601860248201527f4f6e6c7920746865206f776e65722063616e206d696e742e00000000000000006044820152606401610359565b600880545f91826105d983611110565b9190505590506105e984826109e3565b6105f38184610a44565b9392505050565b6001600160a01b039182165f90815260056020908152604080832093909416825291909152205460ff1690565b5f6001600160e01b031982166380ac58cd60e01b148061065757506001600160e01b03198216635b5e139f60e01b145b8061026957506301ffc9a760e01b6001600160e01b0319831614610269565b5f818152600260205260408120546001600160a01b03168061026957604051637e27328960e01b815260048101849052602401610359565b6103dc8383836001610a93565b5f828152600260205260408120546001600160a01b03908116908316156106e7576106e7818486610b97565b6001600160a01b03811615610721576107025f855f5f610a93565b6001600160a01b0381165f90815260036020526040902080545f190190555b6001600160a01b0385161561074f576001600160a01b0385165f908152600360205260409020805460010190555b5f8481526002602052604080822080546001600160a01b0319166001600160a01b0389811691821790925591518793918516917fddf252ad1be2c89b69c2b068fc378daa952ba7f163c4a11628f55a4df523b3ef91a4949350505050565b6001600160a01b0382166107df57604051630b61174360e31b81526001600160a01b0383166004820152602401610359565b6001600160a01b038381165f81815260056020908152604080832094871680845294825291829020805460ff191686151590811790915591519182527f17307eab39ab6107e8899845ad3d59bd9653f200f220920489ca2b5937696c31910160405180910390a3505050565b6001600160a01b0383163b1561096c57604051630a85bd0160e11b81526001600160a01b0384169063150b7a029061088d908890889087908790600401611134565b6020604051808303815f875af19250505080156108c7575060408051601f3d908101601f191682019092526108c491810190611170565b60015b61092e573d8080156108f4576040519150601f19603f3d011682016040523d82523d5f602084013e6108f9565b606091505b5080515f0361092657604051633250574960e11b81526001600160a01b0385166004820152602401610359565b805160208201fd5b6001600160e01b03198116630a85bd0160e11b1461096a57604051633250574960e11b81526001600160a01b0385166004820152602401610359565b505b5050505050565b606061097e82610676565b505f61099460408051602081019091525f815290565b90505f8151116109b25760405180602001604052805f8152506105f3565b806109bc84610bfb565b6040516020016109cd9291906110fc565b6040516020818303038152906040529392505050565b6001600160a01b038216610a0c57604051633250574960e11b81525f6004820152602401610359565b5f610a1883835f6106bb565b90506001600160a01b038116156103dc576040516339e3563760e11b81525f6004820152602401610359565b5f828152600660205260409020610a5b82826111cf565b506040518281527ff8e1a15aba9398e019f0b49df1a4fde98ee17ae345cb5f6b5e2c27f5033e8ce79060200160405180910390a15050565b8080610aa757506001600160a01b03821615155b15610b68575f610ab684610676565b90506001600160a01b03831615801590610ae25750826001600160a01b0316816001600160a01b031614155b8015610af55750610af381846105fa565b155b15610b1e5760405163a9fbf51f60e01b81526001600160a01b0384166004820152602401610359565b8115610b665783856001600160a01b0316826001600160a01b03167f8c5be1e5ebec7d5bd14f71427d1e84f3dd0314c0f7b2291e5b200ac8c7c3b92560405160405180910390a45b505b50505f90815260046020526040902080546001600160a01b0319166001600160a01b0392909216919091179055565b610ba2838383610c8b565b6103dc576001600160a01b038316610bd057604051637e27328960e01b815260048101829052602401610359565b60405163177e802f60e01b81526001600160a01b038316600482015260248101829052604401610359565b60605f610c0783610cec565b60010190505f8167ffffffffffffffff811115610c2657610c26610f1c565b6040519080825280601f01601f191660200182016040528015610c50576020820181803683370190505b5090508181016020015b5f19016f181899199a1a9b1b9c1cb0b131b232b360811b600a86061a8153600a8504945084610c5a57509392505050565b5f6001600160a01b038316158015906105655750826001600160a01b0316846001600160a01b03161480610cc45750610cc484846105fa565b806105655750505f908152600460205260409020546001600160a01b03908116911614919050565b5f8072184f03e93ff9f4daa797ed6e38ed64bf6a1f0160401b8310610d2a5772184f03e93ff9f4daa797ed6e38ed64bf6a1f0160401b830492506040015b6d04ee2d6d415b85acef81000000008310610d56576d04ee2d6d415b85acef8100000000830492506020015b662386f26fc100008310610d7457662386f26fc10000830492506010015b6305f5e1008310610d8c576305f5e100830492506008015b6127108310610da057612710830492506004015b60648310610db2576064830492506002015b600a83106102695760010192915050565b6001600160e01b031981168114610dd8575f5ffd5b50565b5f60208284031215610deb575f5ffd5b81356105f381610dc3565b5f81518084528060208401602086015e5f602082860101526020601f19601f83011685010191505092915050565b602081525f6105f36020830184610df6565b5f60208284031215610e46575f5ffd5b5035919050565b80356001600160a01b0381168114610e63575f5ffd5b919050565b5f5f60408385031215610e79575f5ffd5b610e8283610e4d565b946020939093013593505050565b5f5f5f60608486031215610ea2575f5ffd5b610eab84610e4d565b9250610eb960208501610e4d565b929592945050506040919091013590565b5f60208284031215610eda575f5ffd5b6105f382610e4d565b5f5f60408385031215610ef4575f5ffd5b610efd83610e4d565b915060208301358015158114610f11575f5ffd5b809150509250929050565b634e487b7160e01b5f52604160045260245ffd5b5f5f67ffffffffffffffff841115610f4a57610f4a610f1c565b50604051601f19601f85018116603f0116810181811067ffffffffffffffff82111715610f7957610f79610f1c565b604052838152905080828401851015610f90575f5ffd5b838360208301375f60208583010152509392505050565b5f5f5f5f60808587031215610fba575f5ffd5b610fc385610e4d565b9350610fd160208601610e4d565b925060408501359150606085013567ffffffffffffffff811115610ff3575f5ffd5b8501601f81018713611003575f5ffd5b61101287823560208401610f30565b91505092959194509250565b5f5f6040838503121561102f575f5ffd5b61103883610e4d565b9150602083013567ffffffffffffffff811115611053575f5ffd5b8301601f81018513611063575f5ffd5b61107285823560208401610f30565b9150509250929050565b5f5f6040838503121561108d575f5ffd5b61109683610e4d565b91506110a460208401610e4d565b90509250929050565b600181811c908216806110c157607f821691505b6020821081036110df57634e487b7160e01b5f52602260045260245ffd5b50919050565b5f81518060208401855e5f93019283525090919050565b5f61056561110a83866110e5565b846110e5565b5f6001820161112d57634e487b7160e01b5f52601160045260245ffd5b5060010190565b6001600160a01b03858116825284166020820152604081018390526080606082018190525f9061116690830184610df6565b9695505050505050565b5f60208284031215611180575f5ffd5b81516105f381610dc3565b601f8211156103dc57805f5260205f20601f840160051c810160208510156111b05750805b601f840160051c820191505b8181101561096c575f81556001016111bc565b815167ffffffffffffffff8111156111e9576111e9610f1c565b6111fd816111f784546110ad565b8461118b565b6020601f82116001811461122f575f83156112185750848201515b5f19600385901b1c1916600184901b17845561096c565b5f84815260208120601f198516915b8281101561125e578785015182556020948501946001909201910161123e565b508482101561127b57868401515f19600387901b60f8161c191681555b50505050600190811b0190555056fea264697066735822122068c983aa4df3d6ec1a29754ddd783794b038c8cfdba041675af060dbc03888c664736f6c634300081c0033",
  "linkReferences": {},
  "deployedLinkReferences": {},
  "immutableReferences": {},
  "inputSourceName": "project/contracts/TotemForge.sol",
  "buildInfoId": "solc-0_8_28-6019e8122b9f308db02bebe67d7a5eeb68b7009d"
}